:100000000C9434000C943E000C943E000C943E0082
:100010000C943E000C943E000C943E000C943E0068
:100020000C943E000C943E000C943E000C943E0058
:100030000C943E000C943E000C943E000C943E0048
:100040000C943E000C943E000C943E000C943E0038
:100050000C943E000C943E000C943E000C943E0028
:100060000C943E000C943E0011241FBECFEFD8E04C
:10007000DEBFCDBF0E9440000C9465000C940000D0
:100080000F931F938FEF84B915B880E090E041E0A3
:1000900050E060E070E0E5B19A01082E02C0220F46
:1000A000331F0A94E2F72E2B25B90FE916E821E059
:1000B000015010402040E1F700C0000015B8019643
:0E00C0008830910544F3CB01E6CFF894FFCFD2
:00000001FF
