:100000000C9434000C943E000C943E000C943E0082
:100010000C943E000C943E000C943E000C943E0068
:100020000C943E000C943E000C943E000C943E0058
:100030000C943E000C943E000C943E000C943E0048
:100040000C943E000C943E000C943E000C943E0038
:100050000C943E000C943E000C943E000C943E0028
:100060000C943E000C943E0011241FBECFEFD8E04C
:10007000DEBFCDBF0E945D000C946A000C940000AE
:1000800026E02093C2001092C0009093C500809398
:10009000C40088E18093C1000895E0ECF0E0908115
:1000A00095FFFDCF8093C6000895E0ECF0E08081DD
:1000B0008823ECF78091C600089587E690E00E94BF
:1000C00040000E9455008F5F0E944D008DE00E940D
:0800D0004D00F7CFF894FFCFBB
:00000001FF
