:100000000C9434000C9449000C9449000C94490061
:100010000C9449000C9449000C9449000C9449003C
:100020000C9449000C9449000C9449000C9449002C
:100030000C9449000C9449000C9449000C9449001C
:100040000C9449000C9449000C9449000C9449000C
:100050000C9449000C9449000C9449000C944900FC
:100060000C9449000C94490011241FBECFEFD8E036
:10007000DEBFCDBF11E0A0E0B1E0E2EDF0E002C0F4
:1000800005900D92A031B107D9F70E944B000C9456
:1000900067000C9400008FEF84B980E090E020E0CE
:1000A00031E0A0E0B0E0F901E80FF91F608165B927
:1000B0004FE956E861E0415050406040E1F700C030
:1000C000000001968031910574F3CD01ECCFF894D6
:0200D000FFCF60
:1000D2003F065B4F666D7D077F6F777C395E797176
:00000001FF
