:100000000C9434000C943E000C943E000C943E0082
:100010000C943E000C943E000C943E000C943E0068
:100020000C943E000C943E000C943E000C943E0058
:100030000C943E000C943E000C943E000C943E0048
:100040000C943E000C943E000C943E000C943E0038
:100050000C943E000C943E000C943E000C943E0028
:100060000C943E000C943E0011241FBECFEFD8E04C
:10007000DEBFCDBF0E9440000C9471000C940000C4
:100080000F931F938FEF84B915B880E090E061E083
:1000900070E040E850E0E0E0F0E0A5B19B01082E00
:1000A00002C0220F331F0A94E2F72A2B25B9A5B10B
:1000B0009A01082E02C0359527950A94E2F72A2B5B
:1000C00025B90FE916E821E0015010402040E1F782
:1000D00000C0000015B8019688309105F4F2CF01F8
:0600E000DCCFF894FFCF15
:00000001FF
